:020000040000fa
:080000000001040000000000f3
:020000040000fa
:04000800ec02000006
:020000040000fa
:04000c00ec02000002
:020000040000fa
:04001000ec020000fe
:020000040000fa
:04001400ec020000fa
:020000040000fa
:04001800ec020000f6
:020000040000fa
:04001c00ec020000f2
:020000040000fa
:04002000ec020000ee
:020000040000fa
:04002400ec020000ea
:020000040000fa
:04002800e8010000eb
:020000040000fa
:04002c00ec020000e2
:020000040000fa
:04003000ec020000de
:020000040000fa
:04003400ec020000da
:020000040000fa
:04003800ec020000d6
:020000040000fa
:04003c00ec020000d2
:020000040000fa
:040040003202000088
:020000040000fa
:040044004e02000068
:020000040000fa
:04004800ec020000c6
:020000040000fa
:04004c00ec020000c2
:020000040000fa
:04005000ec020000be
:020000040000fa
:04005400ec020000ba
:020000040000fa
:04005800ec020000b6
:020000040000fa
:04005c00ec020000b2
:020000040000fa
:04006000ec020000ae
:020000040000fa
:04006400ec020000aa
:020000040000fa
:04006800040200008e
:020000040000fa
:04006c00ec020000a2
:020000040000fa
:04007000ec0200009e
:020000040000fa
:04007400ec0200009a
:020000040000fa
:04007800ec02000096
:020000040000fa
:04007c00ec02000092
:020000040000fa
:04008000ec0200008e
:020000040000fa
:04008400ec0200008a
:020000040000fa
:040088007c020000f6
:020000040000fa
:04008c00b2020000bc
:020000040000fa
:04009000ec0200007e
:020000040000fa
:04009400ec0200007a
:020000040000fa
:04009800ec02000076
:020000040000fa
:04009c00ec02000072
:020000040000fa
:0400a000ec0200006e
:020000040000fa
:0400a400ec0200006a
:020000040000fa
:0400a800ec02000066
:020000040000fa
:0400ac00ec02000062
:020000040000fa
:0400b000ec0200005e
:020000040000fa
:0400b400ec0200005a
:020000040000fa
:0400b800ec02000056
:020000040000fa
:0400bc00ec02000052
:020000040000fa
:0400c000ec0200004e
:020000040000fa
:0400c400ec0200004a
:020000040000fa
:0400c800ec02000046
:020000040000fa
:0400cc00ec02000042
:020000040000fa
:0400d000ec0200003e
:020000040000fa
:0400d400ec0200003a
:020000040000fa
:0400d800ec02000036
:020000040000fa
:04010800ec02000005
:020000040000fa
:04010c00ec02000001
:020000040000fa
:04011000ec020000fd
:020000040000fa
:04011400ec020000f9
:020000040000fa
:04011800ec020000f5
:020000040000fa
:04011c00ec020000f1
:020000040000fa
:04012000ec020000ed
:020000040000fa
:04012400ec020000e9
:020000040000fa
:04012800e8010000ea
:020000040000fa
:04012c00ec020000e1
:020000040000fa
:04013000ec020000dd
:020000040000fa
:04013400ec020000d9
:020000040000fa
:04013800ec020000d5
:020000040000fa
:04013c00ec020000d1
:020000040000fa
:040140003202000087
:020000040000fa
:040144004e02000067
:020000040000fa
:04014800ec020000c5
:020000040000fa
:04014c00ec020000c1
:020000040000fa
:04015000ec020000bd
:020000040000fa
:04015400ec020000b9
:020000040000fa
:04015800ec020000b5
:020000040000fa
:04015c00ec020000b1
:020000040000fa
:04016000ec020000ad
:020000040000fa
:04016400ec020000a9
:020000040000fa
:04016800040200008d
:020000040000fa
:04016c00ec020000a1
:020000040000fa
:04017000ec0200009d
:020000040000fa
:04017400ec02000099
:020000040000fa
:04017800ec02000095
:020000040000fa
:04017c00ec02000091
:020000040000fa
:04018000ec0200008d
:020000040000fa
:04018400ec02000089
:020000040000fa
:040188007c020000f5
:020000040000fa
:04018c00b2020000bb
:020000040000fa
:04019000ec0200007d
:020000040000fa
:04019400ec02000079
:020000040000fa
:04019800ec02000075
:020000040000fa
:04019c00ec02000071
:020000040000fa
:0401a000ec0200006d
:020000040000fa
:0401a400ec02000069
:020000040000fa
:0401a800ec02000065
:020000040000fa
:0401ac00ec02000061
:020000040000fa
:0401b000ec0200005d
:020000040000fa
:0401b400ec02000059
:020000040000fa
:0401b800ec02000055
:020000040000fa
:0401bc00ec02000051
:020000040000fa
:0401c000ec0200004d
:020000040000fa
:0401c400ec02000049
:020000040000fa
:0401c800ec02000045
:020000040000fa
:0401cc00ec02000041
:020000040000fa
:0401d000ec0200003d
:020000040000fa
:0401d400ec02000039
:020000040000fa
:0401d800ec02000035
:020000040000fa
:100200008fa920000eff20000e01880000000000d2
:10021000000020000000e000020032000001200089
:100220002002880014000700b60107000000e0006b
:1002300003003a00e08225000100200002003700a0
:100240000000200001002000810f7000010032003a
:1002500014000700000020000000e000020032004f
:100260000000020000000000fc5e02000000000030
:100270000040da000000fe004440a900a007200072
:100280000000e0000300320000002000a001880010
:100290004440a800000006008a1f78008b1f7800e9
:1002a0000000060091018800800478000000eb0047
:1002b0001a003700e284440032a0b4009905ba0065
:1002c000e284440032a0b4009906ba00e2844400fb
:1002d00032a0b4000006eb00476fde00fd07b2005d
:1002e000636ce10003003a00ebff07000000eb0045
:1002f0000a003700606ce10004003a00005deb008a
:100300008b05e900fdff3e00040037006168e10055
:10031000010032000086eb000b00070019c7ba008d
:100320001905ba000e04e00003003a000a00e000dc
:10033000e0ff3a0000000600fe07b2009e018800c0
:100340008a047800f5ff3700395dba008b05e900b3
:100350000c003200295dba008b05e900080032006c
:100360000c00e00003003a00e284440032a0b40034
:10037000f5ff370019ddba008b05e900faff3a00f6
:100380008904e800e184440032a0b40000000600c3
:10039000000000000000000000000000000000005d
:1003a000000000000000000000000000000000004d
:1003b000000000000000000000000000000000003d
:1003c000000000000000000000000000000000002d
:1003d000801f78003400f80000002000a001880091
:1003e0000000fa008400a90020002000104c8800c2
:1003f0008cc0a90011e1a9000080fa003400f900c6
:100400004f007800004006003600f800809fbe00d4
:10041000829fbe00849fbe00869fbe003400f8000d
:1004200000002000a00188000000fa008600a9005a
:1004300084e0a9008ce0a800210320003000200007
:10044000ea2607000080fa003400f9004f03be00de
:100450004f02be004f01be004f00be003600f90043
:1004600000400600801f78003400f80000002000e3
:10047000a00188000000fa0084c0a900100020003c
:10048000104c880011e1a9008cc0a9000080fa007e
:100490003400f9004f00780000400600809fbe0045
:1004a0003400f80000002000a00188000000fa00dd
:1004b00084e0a900d11680000002200000806000c6
:1004c0000000e00006003a00a04c800000f0a70009
:1004d0000000ea000000e9004f00de00a04c8800a8
:1004e0008ce0a90013e1a9000080fa003400f900b3
:1004f0004f00be00004006003600f800809fbe009e
:10050000829fbe00849fbe00869fbe003400f8001c
:1005100000002000a00188000000fa008700a90068
:1005200004003700e0108000804078000087200041
:10053000c02b0700c0108000610060000000e000d8
:10054000f8ff3a000080fa003400f9004f03be00c3
:100550004f02be004f01be004f00be003600f90042
:10056000004006003600f800809fbe00829fbe005b
:10057000849fbe00869fbe003400f800000020006b
:10058000a00188000400fa008720a900808d2000c7
:100590008e80e800c52b0700000f78001e00780051
:1005a0000000e00004003a000e80e80010407800ef
:1005b0000000fb00d01088000080fa003400f90031
:1005c0004f03be004f02be004f01be004f00be00f1
:1005d0003600f900004006000040da000000fe008e
:1005e000ec8747008e1f78000000e00037003a00db
:1005f000a3548000e18f510003003200e28f5100cc
:100600000e003a0009003700c02020000000e00082
:1006100001003a000040da000c02e2000b00350055
:100620001422ef000de2a80008003700602120002e
:100630000000e00001003a000040da001602e2008b
:10064000020035001e22ef0017e2a8000200780029
:100650001a003700040a2000e18f51000b003a0015
:10066000030037000402e90002003a0003003700eb
:10067000040a20000e02ab00faff32007410800062
:10068000050037000402e900020032001802ab0046
:10069000fcff3200c41080006102620009003200d9
:1006a000e18f510002003a009410800001003700f1
:1006b000e4108000845878000000e9000000e000a9
:1006c000e4ff3a0000005100090037006c87570032
:1006d00023002000031f7800000f7800c1bf9f0097
:1006e000d2bf9f006c8057008f2107005fb8970032
:1006f0004f077800cf00b10000000600ec874700ec
:100700008e1f78006c87570044002000041f78007b
:10071000000f78006c87570002afbe00e1bf9f005a
:100720006c805700822107001e00be004f07780032
:10073000cf00b10000000600ec8747008e1f780054
:1007400011002000a1bf9f006c875700002f780088
:100750006c805700782107001e0078004f07780052
:10076000cf00b10000000600ec8747008e1f780024
:10077000e20f500034003e00a0548000e10f500012
:1007800003003200e20f500011003a000c00370065
:10079000c32020000300e00001003a000040da001e
:1007a0000c02e200020035001422ef000de2a80066
:1007b0000f42ab000d003a000f42a8000b003700bb
:1007c000632120000300e00001003a000040da004d
:1007d0001602e200020035001e22ef0017e2a80018
:1007e0001942ab0001003a001942a80082017800ca
:1007f0000b0037003102fb00e10f500004003a000b
:100800000f22ab00feff3a0084108800030037007f
:100810001922ab00feff3a00d41088008301e900e2
:100820000300e000f3ff3a00e10f500003003a003c
:100830000f02ab00feff32000c0037001902ab00c4
:10084000feff3200090037006c875700330020009c
:10085000031f7800000f7800c1bf9f00d2bf9f0028
:100860006c805700362107005fb9970002007800be
:100870004f077800cf00b10000000600889fbe003f
:1008800080047800b05480000000e00005003a00c9
:100890000000eb000e0007000084eb000000e00009
:1008a00008003500b85480000900e000050032005f
:1008b00009004400060007000000e00001003d00c0
:1008c0000084eb00080078004f04be000000060022
:1008d000800078000100e00003003a0000002000e2
:1008e000b0548800000005000080eb0002002000ea
:1008f000828f500002003e00b15488000000eb00df
:100900000000060000000500140020008c033700e2
:10091000f4ff2f008a0337000001be001e0007000d
:100920000470a70003f0a10003f8a30013003a002d
:100930006509b10010003200090035006928e100a6
:100940000200350001002800000005000000400002
:10095000818048008502e900fcff3a0000000600a3
:10096000f88f4200050035008100d1000080d300df
:100970008502e800fcff3a00000006008000eb0062
:10098000000005004f89de008201780087033700f0
:100990006011b80095033700c70ade00f107b20006
:1009a000f50fb20008003200e1cf42000200320031
:1009b0000170a00024000500810f700001003200ca
:1009c0000408050044000500810f700002003a0091
:1009d000140005008502e9000000400081c04800c5
:1009e000fcff3b000170a0002400050007f8270071
:1009f000078361000638e10004003a00f707200091
:100a0000878361008703710001003a0003f0a200b0
:100a1000889fbe008a9fbe008c9fbe00470ade00f2
:100a20000480a100c71ade000580a100070028008d
:100a30000785600087856100f70f20000720e1002f
:100a40009e0032000728e1009c0032000106780079
:100a50000400e000b4003200f70720008780600047
:100a60000170a0000500e000c0003200f707200080
:100a7000878161000370a000050652000f003a0054
:100a80000b50e1000b0032000308e10002003a00c5
:100a90000200e1007e00320002045000838458000e
:100aa000040031000001fd008101fd008402fd0011
:100ab0008a05fd006044b800210037000520e100f0
:100ac00005003d000001fd008101fd008402fd00e4
:100ad0008a05fd00050652007a60e1000500350038
:100ae0000170a1004722dd00848070008a807000c0
:100af000630037006044b800ef02660007ff2f0074
:100b0000070666000500e00006003400f0831200ce
:100b10008714dd000511de00071bdd0006017100f2
:100b20008519de007060e1000500350009047800d9
:100b300082047800030178008001eb007006560003
:100b40000b50e10003003a0002004000838048009f
:100b50000400370060041400e0841c000200580008
:100b6000838058000188a300060032008100d10074
:100b70000080d3008984d3000884d3000402e800f5
:100b8000270037000178a30025003a000100e000ab
:100b9000030032008186cf00698656000a003700c4
:100ba0008c0020000000e00004003a0009007800fa
:100bb000880478000004eb00700252008086cf00a9
:100bc0000d0646000c06e9007060e10006003500e5
:100bd0008000780009007800880478000004eb00a9
:100be00070065600700252000c00e0000c00340049
:100bf0008c08dd00f00316000703de00868070001d
:100c00000c00dd00074bde00060070008c4cdd00a0
:100c10000743de00868474000c44dd000c025200a1
:100c20006120e1002000350061016000070028001c
:100c300087816400f7ff270087836400070374003f
:100c40000300e0000600320082037300040032005b
:100c50000000e800e08048000188a3000e003a0090
:100c6000f70f20000720e1004a003d000170a100bd
:100c70004722dd00810072008a8070000000be0003
:100c80004f06be004f05be004f04be000000060028
:100c90006000b800faff37008100d1000080d30067
:100ca0000402e800eeff37000401780089017400b7
:100cb000a10107008a807000f1ff3700f7010700eb
:100cc000070278000001fd008101fd00f30107002b
:100cd00087027800850372000778a30004003200c1
:100ce0000001fd008101fd0006020700e4ff37005e
:100cf000850362000768a300080032000b50e10082
:100d000003003200f0ff2f00f1ff2700dcff370067
:100d10000001fd008101fd00d9ff37000468a30038
:100d2000d7ff3200faff3700f8ff27008883600002
:100d30000b003a000000e00009003a008303640061
:100d400082837300020032000200be00ccff370035
:100d50000b50e100ceff3a000200be00c8ff370092
:100d600014002000810064003eff3700f8ff2700d8
:100d70008883610004003a000200e00002003a00ab
:100d80008c007800beff370015002000830164004e
:100d900039ff370001f827000000200081007500ae
:100da000b7ff3700889fbe008a9fbe008c9fbe00a1
:100db0001b0020000202be00058668000600280015
:100dc000060666004709de00f20fb200820032001c
:100dd0000243e80080003200c729de00f30fb200b2
:100de0007d0032000343e8007b003200f107b200cf
:100df0000170a000f507b2000570a000c708dd0073
:100e00004903de00868070004700dd00c72add0050
:100e10004923de00868272004722dd00030551006f
:100e20000403500085835800030031000000400097
:100e3000818048000a05e9008c1f78008a9fbe0067
:100e400004005000858058000402420085824a0058
:100e500000004000818048000005eb000004be0057
:100e60006033b8000406be000d48e10056003100b2
:100e7000110009004dccd8000c01b8000d02b800db
:100e80008481410060824a008283530003045c0035
:100e900084845c0060055d000a00e00025003a00e3
:100ea000800578000d40e10049003100880078009d
:100eb00007007800110009004d88d8000c01b80027
:100ec0000d02b8008481410060824a006003110075
:100ed00083835b0004045c00e0845c000900e000a4
:100ee00021003a004f01be000300e0002b00320059
:100ef000e3016000070673008c817100010032007d
:100f0000640070004200de004e5edd000c007000e8
:100f1000c258de0001e0a00083010700cf01780085
:100f2000818071004f06be004f05be004f04be0019
:100f3000000006008c8343000d044c00e0844c004c
:100f400060054d000000e9000a00e000d4ff320017
:100f50008c8343000d044c00e0844c0060054d0080
:100f60000000e900ceff37000c0343008d834b00e7
:100f700060044c00e0844c000000e9000900e0003f
:100f8000d8ff32000c0343008d834b0060044c00fb
:100f9000e0844c000000e900d2ff37004200de0090
:100fa0004e5edd000c007000c258de0001e0a000c3
:100fb000cf0178000300e000daff3200600010008b
:100fc000e0801800d7ff3700f0ff2f00aaff37009e
:100fd000f0ff2f00b9ff37000404be002f01070007
:100fe000870678000004fd008104fd002b01070046
:100ff000078366000678a300030032000960a7009b
:101000000800be002c0037000d78a300020032005b
:101010000800be00280037000778a30026003a0029
:1010200001f0a10009f0a1000668a300030032004e
:10103000f1ff2700f0ff2f00baff37000d68a30073
:10104000030032000800be008c807000b5ff37003e
:101050000768a30007003a000648a3000300320017
:10106000f1ff2700f0ff2f00aeff37000d48a3006f
:10107000030032006000b8008c807000a9ff3700c8
:101080000748a3000400320001f8270000002000f8
:101090008c807000a3ff3700760107000004fd007c
:1010a0008104fd0002057800720107000802be00fd
:1010b0008a01780059ff37000160a0001202200069
:1010c000424d880097ff37000100e0001200320017
:1010d0000500e00010003200889fbe008a9fbe001d
:1010e0008c9fbe000006eb0001f8a3000300320055
:1010f00060001000e08018000cf0a00005f8a300cc
:101100000300320060021200e0821a000cf0a2001c
:101110008005eb0041ff37006000b80002000500c9
:10112000038368000700280007036300470ade0006
:101130000480a100c71ade000580a100f70f20007f
:101140000720e100420032000728e10040003200a1
:10115000889fbe008a9fbe008c1f7800f107b200f6
:10116000f307b2000400e000640032000170a00048
:101170000500e000680032000370a0008505420011
:10118000eb07b1000204b8000302b80084844400f5
:1011900060854a00020ab800848444000a854a0037
:1011a000030ab80004054500040033000804d00019
:1011b0008984d2000a85d2008b05e9006158e100dc
:1011c0003d003500021020000901610003082000e5
:1011d00089816100f7072000878364000886730017
:1011e000c84cde00c853dd00878474004855de001b
:1011f0000300e000060032008203760004003200a3
:101200008904e80060054d000a88a3000c003a003c
:10121000f70f20000758e10044003d000a70a100cc
:10122000c75ddd000a8575008a007300090078003b
:101230004f0678004f05be004f04be0000000600b8
:101240000a05d1008984d3008b05e800f0ff370040
:10125000881f7800060478009000070007027800d5
:101260000001fd008101fd008c000700870278006d
:10127000850372000778a300050032000001fd001d
:101280008101fd009f0007004f0478000000060068
:10129000850372000748a30003003200f0ff2f000f
:1012a000f1ff2700f8ff37000000200001f82700b9
:1012b00088807000f4ff3700880178004848dd001e
:1012c000808171004848de00c850dd0001007000d8
:1012d000c850de00060478000b01780016000700f5
:1012e00088807000d2ff37000500e0000500320062
:1012f000170020003a0007009dff370081037000af
:10130000f9ff3a00860078004f0678004f05be00ce
:101310004f04be000000050083037100f9ff320096
:10132000270020002e00070094ff370001f8270057
:1013300086807000f4ff37000100e00026003200d4
:10134000610111007810e10023003c006022b80028
:101350007010e10004003500800278000100780080
:101360008000eb00700151000200e0000900340031
:1013700070031100062add00822ade008603dd00ec
:10138000878272000200de00860bdd00070070001d
:101390008208de0084817100f4ff2700048262006d
:1013a0008481710004002800848262006102600070
:1013b00005f0a6000000060004827100070032005c
:1013c0000000e800e0804800000006000002be00c7
:1013d0006000b800efff37006000b80000000600b2
:1013e000889fbe000004eb006138e10016003a005f
:1013f0000100e00008003a00c800de004800dd00ff
:10140000880020000100e00003003a00c800de0070
:101410004800dd00680444008184cf00e984540062
:10142000060034008908dd00f08314008703de0025
:10143000878070000900dd00090444006102140087
:101440004f04be00000006000300e00008003a0060
:10145000c811de004811dd00880020000300e00014
:1014600003003a00c811de004811dd0068044400a2
:101470008384cf00e9845400060034008919dd001c
:10148000f08314008713de00878171000911dd00ed
:1014900009044400e1021400e9ff3700270020009e
:1014a00001f0a70017002000470bde00f60fb20086
:1014b000040032000643e8000a0032004702b3008d
:1014c0000000060001037800f607b2000603700072
:1014d00002003a000703b300000006008702b300d1
:1014e0000000060001037800f607b2000603700052
:1014f000020032000770a000000006000760a00094
:10150000000006000478a300040032000578a30060
:10151000030032000168a30001003a000200be008f
:101520000160a00000000600810170002700320069
:101530008002eb0001f8a3000300320060001000fd
:10154000e080180015002000f4072000020242008d
:1015500020003400f7032000870360000604200009
:101560000003630002082000000161004700de0064
:10157000c909dd0000807100c708de000600e00038
:101580000800320087037100060032001000b0002e
:101590000180b0000188a30002003200c108de0013
:1015a0000402e800f107b200f30f20000320e1007d
:1015b00003003d004722dd00810072002900370052
:1015c00001f827000000eb00260037006000b8009b
:1015d00000000600680212007f20e10002003400d3
:1015e0006000b8001f0037006011b8007020e100f3
:1015f0000400350080017800010078008000eb00d5
:10160000700252000400e00009003400f0031200f0
:101610000719dd008419de000703dd0086817100f3
:101620000400de00070bdd00060070008408de0009
:10163000f7ff2700838363008703710006002800fb
:1016400003036300070032000700e00003003a00d4
:101650006101600002817300020032001000b000de
:101660000180b0000500a6000000060001f0a00007
:10167000000006004f0ade004709de00f107b20055
:10168000f20fb2000b003200f207b1000170a000af
:10169000c708dd00c901de00838070004700dd005f
:1016a0000400a6000000060060001000e0801800a2
:1016b00000000600810f700001003a0000000600e3
:1016c0008182cf000500e00010003e008082cf0044
:1016d000ee8242007028e1000400390007003e005d
:1016e000800078000000eb000e00370070831200cd
:1016f0008600de000500dd000a003700708352001e
:101700008600dd000000eb0006003700e282520098
:101710008508dd00708312000603de0086807000fd
:101720000500dd007507b0000501ea000400a60011
:101730000000060060001000e080180000000600b5
:10174000889fbe008a9fbe00841f78007c0007002f
:101750004f00780011003300f0ff2f00838f6c00e2
:1017600006003b00040565000a00a70008003700da
:1017700009f0a6001000200008003700820f540076
:10178000838f5c00030039001000200001003e0040
:101790000000200009f0a7000000ea004f05be008d
:1017a0004f04be000000e00000000600881f780023
:1017b000030478000300e00007003d006000100013
:1017c000e080180060011900e081190002003b0070
:1017d00001f02d00030037000400070008f0a70007
:1017e00001f0a0004f04780000000600889fbe00b2
:1017f0008a9fbe00008270000402710004827100a2
:10180000260032000004be000200be006011b800d5
:101810006b092000950220000182cf000a003900e8
:101820000541b1000082cf00070039000541b10039
:101830000982cf00040039000541b1000882cf00c1
:10184000010039000541b10005425200120032008a
:101850000a003b0082817100610164008100d100b7
:101860000080d3008984d3000884d3008b05e8006e
:101870000442e800f7ff3a0007003700080444007c
:1018800089844c0000004800818048008b05e900f5
:101890000442e900f9ff3a00030007004f05be00cb
:1018a0004f04be000000060081002000618055004a
:1018b0000b003d000b00200061fe2f000100e10045
:1018c0001d00340082817100610164008904d1002f
:1018d0000884d3000000e800faff3a0071002000fd
:1018e0006100640003007000020060000900320023
:1018f00061044400e0844c000988a5000500320022
:101900008b05e8006808e10002003a008904d10074
:101910000884d300f20f20000258e10005003d00ca
:10192000c75ddd00f907b200898075000800780006
:10193000000006000bf827008b007800000005006f
:101940000004be0014fc07000003be000405be0036
:101950000200be0010fc0700844f75000000060066
:1019600080007800040037003104e00002003a00f3
:101970000000510000000600010178000108a300ea
:10198000f9ff3a008101780031017800f4ef2f006f
:10199000020242000281ea000201620004082800fb
:1019a00004016100f7ff3200830078000101780034
:1019b0003104e000fdff3a00000051000000060085
:1019c0000000fa00cfb89700688157008304070031
:1019d0000080fa0000000600050007005e00070016
:1019e000ff020700af030700d703070031033700ea
:1019f000ec874700889fbe008a9fbe008c9fbe0078
:101a00008e1f780000067800010478001807900007
:101a10002805900098067800cdb79f00b805900083
:101a20003202be002203be000400be000601be005a
:101a30004f18de006011b8008000eb00d0b79f00a7
:101a4000e1b79f00f2b79f0083bf9f00800478003a
:101a50000900e000060032006000b8006011b80024
:101a600004025000858258000603590087835900fc
:101a70000e00e000020035000d10a100cdb79f0060
:101a80000900e00005003a004fb097000028a300cd
:101a900002003a000038a300020032008a00e90088
:101aa000010037008a007800f8815700a20020006a
:101ab00008007800290307000900e00003003a004d
:101ac000cfb097000128a300080032000000e90011
:101ad00000814500b1c2b3000900e00001003200fe
:101ae000d1c2b30001497800050037000138a300d6
:101af000030032000000e90001c2b30081757800e4
:101b0000480190000201e900000151008080450079
:101b10004fb297008a0178000c0078004704070054
:101b20009c0090000188a3000400320098009000ff
:101b3000810f500001003d00010078004f07780040
:101b40004f06be004f05be004f04be00cf00b100df
:101b500000000600000006008f04b000889fbe0051
:101b60008a9fbe008c9fbe008e1f7800809f9f00c2
:101b7000f19f9f00c3779f0001007800b0007800bc
:101b8000e1a79f0010007800d0b79f00ff99970051
:101b9000a3019000d3a79f007f9a97004402900072
:101ba000f4979f00ff9a9700b50690003204be009c
:101bb0002205be006022b8006033b8000800be00f5
:101bc0000a01be00951807000000e00003003d0078
:101bd0000bf0a200d0c2b300040037006fa397003f
:101be0000628a30008003200b0c2b300804e78007f
:101bf000dfa397008703e900c7af9f001000200014
:101c0000f0a79f000f003700efa097000138a30056
:101c10000800320000c2b300804e78005fa1970038
:101c20000201e900c2af9f0013002000f3a79f004c
:101c3000040037005fa29700c4af9f008002eb0052
:101c4000f5a79f000800be000a01be00c1ff070003
:101c5000f4ff2f00f5ff2f00f6ff2f00f7ff2700fe
:101c600004026000858260000603610087836100d2
:101c70006000b8000200200003ff27000020e10000
:101c800001a8e10002b0e10003b8e10010003a0051
:101c90004f7397008600fb001104b100ffa397006b
:101ca00007804600f98f500002003e0041a7200047
:101cb0000100370081a720008714070080a72000bb
:101cc00027ff0700ffa09700010140001400370024
:101cd0000020e10001a8e10002b0e10003b8e1004a
:101ce000120036004f7197008200fb001104b10012
:101cf000ffa1970003804600f98f500002003e00cc
:101d0000c1a720000100370001a8200072140700bd
:101d100000a8200012ff07007fa2970004014000e6
:101d20006fa29700dfa19700190237006022b80068
:101d30006033b8000800be000a01be003718070073
:101d40000000e000680032006000b80002002000df
:101d500003ff230080af9f0091af9f00a2af9f00c1
:101d6000b3af9f000007eb000802be000a03be00ed
:101d7000d4af9f00e5af9f00f6af9f0087b79f00ed
:101d8000070037000e07e8000800be000a01be0089
:101d900080af9f0091af9f00a2af9f00b3af9f00a5
:101da0006022b80006002000470224000fa8970018
:101db0009fa897002fa99700bfa99700c9190700ee
:101dc0000004be000205be000002be000203be0009
:101dd0005fa89700efa897007fa997008fb19700a1
:101de0000e1807000000e000e6ff3d000006eb00d3
:101df0000fac97009fac97002fad9700bfad970039
:101e00002500370040ed2f00800f570019003d00de
:101e10000c00e00016003a006022b8000600200026
:101e2000073524005fa89700efa897007fa99700c7
:101e30008fb19700ab1907000002be000203be007d
:101e4000d4af9f00e5af9f00f6af9f0087b79f001c
:101e50006022b80006002000073524000800be00fc
:101e60000a01be009f1907000004be000205be0063
:101e70001c0020006022b800060020004702240059
:101e80000800be000a01be00e71807000004be00fb
:101e90000205be000e07e9000802be000a03be00ec
:101ea0005fa89700efa897007fa997008fb19700d0
:101eb000da1707000000e000d2ff35000800be007e
:101ec0000a01be0080af9f0091af9f00a2af9f00ac
:101ed000b3af9f005fac9700efac97007fad97006a
:101ee0008fb59700080037006022b8000600200078
:101ef00007ff230084af9f0095af9f00a6af9f0010
:101f0000b7af9f000007eb00cf7297000500fb0002
:101f1000f8130700d0779f005fb3970060002000a0
:101f20000600e000010035005fb0970071c6b30005
:101f3000df73970081cf53000a003a00dfb09700ab
:101f40000100e0009b0132009b0137008e0f500022
:101f50009f013c00d0af9f0052c6b30082cf9f00cc
:101f60001e003700df71970083cf9f00020037000b
:101f700064c6b30084cf9f000000e800d0af9f008c
:101f800060c6b3008fca970080cf520013003a009a
:101f90000e00e00008003d006000b80002002000d4
:101fa00003ff230080af9f0091af9f00a2af9f006f
:101fb000b3af9f000007eb0061c6b30081cf9f0065
:101fc00070c6b3005f719700804f5100030032006c
:101fd000dfa997008e814100d3af9f000faa970021
:101fe0009faa97002fab9700bfab970094b79f00b5
:101ff000a5b79f00b6b79f00c7b79f000800be00f7
:102000000a01be00d0b79f00e1b79f00f2b79f0062
:1020100083bf9f000006eb000802be000a03be005b
:10202000b49f9f00c59f9f00d69f9f00e79f9f0082
:10203000310037001fb29700afb297003fb397004f
:10204000cfb397005fb09700efb097007fb19700d4
:102050008fb9970074180700b61c07000004be0073
:102060000205be00aa1707008002780085a79f001e
:102070001fb29700afb297003fb39700cfb397005e
:102080000800be000a01be00161907005fb29700e3
:10209000efb297007fb397008fbb9700111807002e
:1020a0000002be000203be0007f0a200d4b79f00ea
:1020b000e5b79f00f6b79f0087bf9f006022b8007a
:1020c00006002000470224001fb09700afb0970021
:1020d0003fb19700cfb19700531807000002be0030
:1020e0000203be0094b79f00a5b79f00b6b79f003c
:1020f000c7b79f000c06e800dfaa9700850f5600bf
:10210000ccff35003f9c9700cf9c97005f9d9700c8
:10211000ef9d97006022b8000600200047012400d0
:102120001fb09700afb097003fb19700cfb19700b5
:10213000ec1807000002be000203be0094b79f0027
:10214000a5b79f00b6b79f00c7b79f005fb09700c5
:10215000efb097007fb197008fb997002f17070056
:102160000000e0000f0035001fb29700afb29700eb
:102170003fb39700cfb397005fb09700efb09700e1
:102180007fb197008fb99700241707000000e00087
:1021900011003a008fa297000508a3000800320042
:1021a0000d0037006000b8006011b80090b79f00c4
:1021b000a1b79f00b2b79f00c3b79f0006003700ca
:1021c0006022b8006033b80094b79f00a5b79f00a5
:1021d000b6b79f00c7b79f001fb29700afb2970076
:1021e0003fb39700cfb397000800be000a01be00be
:1021f000c21707000002be000203be0084a79f00b2
:1022000095a79f00a6a79f00b7a79f0050c6b30041
:102210008fca970080cf520003003a000003eb0002
:10222000d6b79f0001003700deb79f007fa697005a
:102230000000eb0090b79f00909f9f00b09f9f0011
:102240008e007800e1979f00660037000faa970084
:102250009faa97002fab9700bfab97000fa09700e6
:102260009fa097002fa19700bfa19700ee1707002e
:10227000301c07000004be000205be002417070042
:1022800000017800efa197000348a3000c003a007a
:102290000200e0000a003a0070c6b3005f729700c7
:1022a000804f520006003a00dfb297000500e000c0
:1022b00003003d001fb397000607e8002000370029
:1022c0009f9b97000700e0000b003a005fb097006b
:1022d0000000e00008003d00e0c2b30080767e0010
:1022e0000c06e800cfa897008100e900c1af9f006d
:1022f00013002000939f9f008c8046001fb797001b
:102300000300370000c3b300805878000e07e900cf
:102310000e00e000fbff3a001fb2970004064600e3
:102320000c80460005c3b300054841000c06e800d8
:102330000480ea004fab970000034300c6af9f0044
:102340000faa97009faa97002fab9700bfab9700eb
:102350000800be000a01be00621807000fa2970025
:102360009fa297002fa39700bfa397005d170700b8
:102370000002be000203be0007f0a20084a79f0077
:1023800095a79f00a6a79f00b7a79f006022b8004f
:1023900006002000470224000fa897009fa897007e
:1023a0002fa99700bfa997009f1707000002be0042
:1023b0000203be0084af9f0095af9f00a6af9f00b1
:1023c000b7af9f00dfb297008502e900d5b79f0045
:1023d0003f9b97000603e800b69f9f008e0378009e
:1023e00097b79f003f989700dfa89700810f500094
:1023f00005003d007f999700420090006500500065
:10240000800f560091ff39006f9797009f999700b2
:102410000300e00006003a006fa297000448a30002
:1024200003003200e0c2b30080767e000c06e800b4
:102430000c8046000048eb0051c6b3008fca9700dd
:1024400081cf520036003a007f9397008600e90062
:10245000018146000049eb008001eb000e00e00026
:1024600002003d000e07ea001300200022002000b9
:1024700081037800cfaa9700000478000b00370092
:1024800081037800a4002000110009000407d8008f
:1024900001027800000778000783460000c3b300fc
:1024a000004b42000201e9008502e9008700e900d3
:1024b0000e00e000f2ff3a000200e000f0ff3c00f6
:1024c000c5af9f000800780001824600b2c2b30089
:1024d0000300e00001003200d2c2b300024a7800db
:1024e0000101e90082804600cf7197000302fb00e2
:1024f0001404b10053c6b300f90f520001003e00ae
:1025000053c4b300834878004faa97000482e900bf
:10251000c4af9f00820f5600010031006e12070009
:10252000efa2970063806200e20f500013003a00b0
:102530004fab97000600e000100034000d0078005b
:1025400007fd070004003700cfab970087804600e7
:10255000ed7078000000e900ffa19700830f5000a4
:10256000f9ff3100038046004fa9970001032000c6
:102570008c0307000002eb00d4a79f000d00780039
:10258000f7fc07006fa29700dfa197000001780019
:102590008d0078000f989700a80107004f0778007a
:1025a0004f06be004f05be004f04be008f04b100b1
:1025b0000000060010002000e40f470063fe3d000d
:1025c000d0af9f0055c6b30085cf9f0083fe370074
:1025d0000e00e00066fe3500d0af9f0076fe3700ab
:1025e0000200fa00889fbe008a9fbe0000057800a6
:1025f000010478000200780018019000a8059000fe
:1026000098007800b1bf9f00b80490000200e0007d
:10261000020035000110a100b1bf9f00ea81570000
:10262000820020008b0078003002be002003be0034
:1026300008007800490007003fb99700f0006100ea
:10264000030032000000e90001c3b3008174780088
:102650003fb99700e8006100030032000000e90084
:1026600001c2b30081747800480190000201e900c2
:1026700000015100808044003fba97008b01780030
:102680000a0078006d0107009a0090000188a300fd
:102690000400320098009000810f500001003d00be
:1026a000010078004f05be004f04be000080fa0014
:1026b00000000600ea874700889fbe008a9fbe0090
:1026c0008e1f78000004780003007800728757009e
:1026d00084e2260055c72600049fbe00c396220050
:1026e000030f78006c875700004feb001105900036
:1026f000a1049000910578000200e0000200320081
:102700000207780001003700728757000000e000e0
:1027100002003a000e00780091fc07000a00e00079
:10272000030035008a0f5000010036000a007800cf
:102730000b02780089017800000178008e00780093
:10274000080078003d0107004f0778004f05be00e4
:102750004f04be00af00b10000000600f487470040
:10276000889fbe008a9fbe008c9fbe008e1f78008f
:102770000605be000404be0081bf9f0082b79f0013
:10278000f3b79f00b0009000e1b79f0013017800fd
:1027900092b79f0090069000400690000c06e9005a
:1027a0000d00e00001003d001d002000efb197008a
:1027b0000c8041000048eb001e0020001f00370085
:1027c0000c06e9000fb09700cf80de006109b90068
:1027d000a0b79f00b1b79f00c2b79f00d3b79f00bb
:1027e0000203be000002be000800be000a01be00d7
:1027f000fe19070000077800efb097000c8040003a
:1028000003c3b300034847008d06e9000fb89700e3
:102810000000e90080bf9f002fb29700bfb2970071
:102820004fb39700dfb397000800be000a01be0057
:10283000e71907000205be000004be000c00e0001e
:102840000d003200e00f5400e08f5c00e00f5d00ef
:10285000e08f5d00daff3a000d00e000d8ff3c0099
:102860008fb897000100e000030034001fb197000b
:102870000218a300d2ff3a000e00e00002003a0066
:10288000ffb197001340a1000c0078004f077800bb
:102890004f06be004f05be004f04be004f01b10001
:1028a000000006000200fa00889fbe008a9fbe005a
:1028b000800478000104780002007800180190007c
:1028c0002805900098007800b1bf9f00b8059000df
:1028d0000200e000020035000110a100b1bf9f001e
:1028e000ea815700a20020008a0078003002be0072
:1028f0002003be000800780098ff07004801900000
:102900000201e90000015100808045003fba9700b4
:102910008a01780009007800c8000700990090003b
:102920000188a3000400320098009000810f50003d
:1029300001003d00010078004f05be004f04be00bd
:102940000080fa0000000600fa874700889fbe005a
:102950008a9fbe008c9fbe008e1f78008004780086
:102960000104780082057800180190002805900085
:1029700018077800b80090000200e000020035005f
:102980000e10a10001003700120020007000670047
:10299000e0b79f00090032003b02be002b03be00df
:1029a000e00f5200e08f5a00e00f5b00e08f5b0009
:1029b000020032008a86e900010037008a067800aa
:1029c000e8026700f5b79f00010032008d06e900bc
:1029d0003b02be002b03be00e4af9f00f5af9f009b
:1029e00086b79f0097b79f00480690000c06e90045
:1029f0000c8040000048eb00efb297007fb29700d8
:102a00008903780081047800d8af9f000204780021
:102a10008bbf9f008a057800034578002a003700a5
:102a20000c06e9006fab97006f006300e90f5000e0
:102a300002003c000003b000010037007005b00048
:102a40000a03fb001604b100f90f53000c003e000e
:102a5000000378000650a0001606b100f90f5300dd
:102a600007003e00b4b79f00a5b79f00c7b79f00ff
:102a700027110700cfb39700afb297003fb297007e
:102a800080747e000804e9008d06e9006fa89700b5
:102a9000ffa897000fb197009fb197004600200054
:102aa0008301d1000281d3008180d3000080d30054
:102ab0000603e900faff3a00e0af9f00f1af9f0084
:102ac00082b79f0093b79f00e10f56000f003600ba
:102ad0006fa89700ffa897000fb197009fb19700cc
:102ae000e00f5000e08f5800e00f5900e08f5900d0
:102af000cbff3a000800e000c9ff3c000d00e000f9
:102b0000020034000e18a300c5ff3a0089007800c7
:102b1000f4b79f00870478005fac97008a41780083
:102b20000b0578008fbd97000500e0001000320013
:102b30003b02be002b03be00e4af9f00f5af9f0039
:102b400086b79f0097b79f00e00f5200e08f5a00b2
:102b5000e00f5b00e08f5b00050032000c06e9002f
:102b600083707e000c06e90000c3b30080707e0015
:102b7000ffb297000500e000030032000c06e900f8
:102b800000c2b30080707e00480190000201e9009d
:102b90000c0151008c8040000e0278008a01780000
:102ba0000900780025000700990090000188a30023
:102bb0000400320098009000810f500001003d0099
:102bc000010078004f0778004f06be004f05be0099
:102bd0004f04be00af01b100000006008201780082
:102be00001017800f1ff270051023700889fbe00e5
:102bf0008a1f780080047800490090000204780061
:102c0000800f5400010036000004780008017800ad
:102c10006a8544001a007800db0107001a004400ae
:102c2000000d7800e8844400990c14000048eb0083
:102c30004f0578004f04be0000000600f2874700f1
:102c4000889fbe008a9fbe008c9fbe008e1f7800aa
:102c5000800478000105780002047800830578007c
:102c60006107620002003a008b0f5400080039002f
:102c7000080178008a00780009007800b711070081
:102c80008b0f540002003900880578001e003700c1
:102c9000088655000c017800f00f56000100360040
:102ca00002012000010220007e805700bd010700c4
:102cb0008c0678000500370002012000fe805700d6
:102cc00009007800a5110700f0865600ef8f560026
:102cd000f9ff3e004461de0000ff2f000091b900c3
:102ce00002014600fe805700090078009b11070092
:102cf0000e00e00004003a00080178008a00780025
:102d000009007800951107000b0078004f07780044
:102d10004f06be004f05be004f04be002f01b1009c
:102d2000000006000000050000000500000005008e
:102d3000000178000040eb008080fb0081804000b3
:102d4000e3a5200063c278000404e00003003a0019
:102d5000f0a5200060c07800000006009201780015
:102d6000934f520004003a00f0a5200060c07800a4
:102d70000309e800010037000040e800ea4f500076
:102d8000edff360000000600f6874700889fbe0072
:102d90008a9fbe008c9fbe008e1f78008004780042
:102da0000104780083057800040678000000eb0039
:102db000c0b79f008080eb00d1b79f00e0b79f00b5
:102dc000f2b79f000008200080bf9f0098007800a5
:102dd000010078000005eb00010037000a05e8005b
:102de000304178000204e0000300320053c2b30017
:102df000834f5100f9ff3a000a00e000040032005e
:102e00000a0178000900780054110700180c4500e9
:102e10001807780050c2b3009e4f100033013a00eb
:102e20000e07e8000e0c780010003700cfb09700b6
:102e30000100a0000b003700cfb097000110a000e8
:102e400008003700cfb097000120a0000500370030
:102e5000cfb097000130a00002003700cfb097003c
:102e60000140a000c1b79f00000ce80018007800e6
:102e700090407800b2c2b30082cf5000f1ff320020
:102e800007003c0002c2b30082cf5000f0ff3200c6
:102e900032c2b30082cf500007003a00efff370084
:102ea000d2c2b30082cf5000e0ff320002c3b300b1
:102eb00082cf5000e0ff3200a2c2b30082cf5000a8
:102ec0000d003a00000ce8001c80e900000e7800bc
:102ed00010007800e0b79f000000e0000f003d0008
:102ee000cfb097000100a200c1b79f000000ea0028
:102ef000e0b79f0009003700d10f0700e0b79f003f
:102f000001003700000ce800180078009000fb007a
:102f10000103b100e98f5000faff36004fb097006f
:102f20000008a300020032000010a100c0b79f00fb
:102f300018007800e1c2b30090cf100016003a00ec
:102f40008000eb00d1b79f000000e800000c780083
:102f5000a1c2b30090cf100006003a00000ce800b8
:102f60001c80e900000e780010007800d0b79f00a8
:102f700009003700b20f0700d0b79f0001003700eb
:102f8000000ce800180078009000fb000103b1007d
:102f9000e98f5000faff36000800780064ff070050
:102fa00080467800180078001000fb00d10f070061
:102fb00091062000810f50003800320012003c00c2
:102fc00041062000810f5000340032000a003c000e
:102fd00011062000810f5000200032003106200031
:102fe000810f50009a00320051022000810f5000e2
:102ff000ae003a00a700370071062000810f500094
:10300000aa003c008200370001072000810f500019
:103010005c00320007003c00e1062000810f5000f8
:1030200074003200f1062000810f50009f003a002a
:103030003900370051072000810f5000270032006f
:1030400081072000810f500042003200310720002c
:10305000810f500095003a00850037008d80fb00fd
:103060000c01780000fe2f000f004000af0f07009a
:103070000000e0009c00320018007800000ce8001e
:103080009041780002fe2f000f014100f8805700a8
:103090000900780024ff07000e0037008d80fb0038
:1030a0008c0178001200200000fe2f000f0040006d
:1030b000bd0f07000000e0008b003200180ce80094
:1030c00002fe2f000f014100f88057000900780030
:1030d00047fa070000054500840037008d80fb009b
:1030e0008c0178000001eb0000fe2f000f00400073
:1030f000ad0f07000000e0007b003200180ce80074
:1031000002fe2f000f014100f880570009007800ef
:10311000e4fd0700efff37008d80fb008c01780095
:103120000001eb0000fe2f000f0040009e0f070083
:103130000000e0006c003200180ce80002fe2f00d6
:103140000f014100f88057000900780024fd0700b6
:10315000e0ff37008d80fb008c0178000001eb0060
:1031600000fe2f000f0040008f0f07000000e0005e
:103170005d00320018007800000ce80090417800f3
:10318000160037008c0178000001eb00010f2000d1
:1031900000fe2f000f004000830f07000000e0003a
:1031a00051003200180ce8000fb097009fb0970054
:1031b0002fb19700bfb19700e00f5000e08f58008b
:1031c000e00f5900e08f590003003a008001eb0046
:1031d00082a520004000370083c7b30002fe2f0005
:1031e0000f014100f880570009007800d6fd070064
:1031f000b8ff37000b0145008d80fb008c01780083
:1032000000fe2f000f004000c00f070036003700ff
:103210008d80fb000c01780000fe2f000f004000a5
:10322000420f07000000e0002f0032001800780075
:10323000000ce8009041780002fe2f000f014100d1
:10324000f88057000900780043fa0700a1ff370013
:1032500000c8b30080cf560023003a00180ce800e5
:103260001c80e900000e7800104078000d00370047
:1032700000c8b30080cf56001b003a00180ce800cd
:103280001c80e900000e78008001eb00100178003e
:103290001100370001c8b30081cf560012003a0078
:1032a000180ce800e0df9f000800370050c2b300b0
:1032b000e0df9f000e0c78000000eb00c0b79f001d
:1032c000e0b79f008080eb00d1b79f001300200083
:1032d000e2fd2f000f014100f8805700090078003f
:1032e000f4fc07007bff3700180ce8000a007800a8
:1032f0004f0778004f06be004f05be004f04be00ca
:103300006f01b100000006008200fa00889fbe0035
:103310008a1f78000005780082047800c13f9f0072
:103320000004eb00100037000902780088017800e3
:10333000a2f72f000f01410081f72f008f8040007e
:103340000a00780090fe070008004000880f500037
:1033500004003d00b0042000905488000084eb007d
:1033600004003700000478004f3897001004e00094
:10337000edff3a00080078004f0578004f04be00ca
:103380000080fa000000060080017800020037008b
:10339000b15978000201e9000200e000fcff3a00a8
:1033a00000000600889fbe008a9fbe00800478004f
:1033b0000200e0005a00320001407800814c7800a1
:1033c00082814400f1f99f00e20f51005400360061
:1033d00091449800a1449800e1f99f00d1f99f0021
:1033e000e60f51004e003600b1449800c1f99f002d
:1033f000e80f51004a0036000905ea006305650040
:103400000a8444000a055100c1ff2f000105650030
:103410000080fb008000eb00121020001310200041
:103420002a130700008cbe000a01440060b99f0007
:1034300071b99f00e80f550039003600200498004c
:1034400031049800400498005104980020b99f006e
:1034500031b99f0040b99f0051b99f00f80f550046
:103460002f0036006004980071049800000c98004a
:10347000110c9800200c9800310c9800400c98001a
:10348000510c980020b19f0031b19f0040b19f00c6
:1034900051b19f0060b19f0071b19f0000b99f00c2
:1034a00011b99f00640164007801410002044400e6
:1034b000020555006011b8000203be000002be0004
:1034c0000403be006022b800000072008180720018
:1034d00002017300838173000f0037000802780037
:1034e000009abe00029abe00009abe000292be0080
:1034f000000c9800110c9800220c9800330c9800d6
:10350000400c9800510c9800620c9800730c9800c5
:103510000a02b1000802b000ff0f5500efff3e00a5
:10352000090078004f05be004f04be0000000600f1
:10353000f28747008e1f78000202780003017800ae
:103540000000e000020032000007780001003700b0
:10355000728757008002eb000100e000010032009a
:103560008102e90070805700060009000018eb0096
:103570007280570000a8eb002310200093bf9f002b
:10358000aebf9f00b1bf9f00c5bf9f000100e0001c
:1035900004003d00b0042000905488000080eb003f
:1035a00005003700004feb00eebf9f00debf9f001d
:1035b00084007800030007004f0778002f01b10056
:1035c000000006000200fa00881f7800000478005e
:1035d000e2bf9f0064815700080078004aff07009f
:1035e000980090000148a300010032000080eb0029
:1035f0004f0478000080fa00000006000000fa0086
:10360000cfb897006881570074fd07000080fa006a
:103610000000060050f937000000fa00cfb897000c
:1036200068815700040007000080fa0000000600cf
:103630005f0037005c0337003c00fa008f01780020
:10364000c303b1001d0009008019eb00c0a79f0053
:1036500080b79f00a0b12100b0b79f0040fc2f00b1
:103660000f004000900407000080fa0000000600f0
:10367000e6874700889fbe008a9fbe008c9fbe00e1
:103680008e1f78000004be00820578007287570004
:1036900040a82000001f780080a82000000f7800bc
:1036a0000b80e8000005eb00830f500039003d005f
:1036b0000b0678008a0678000087eb00fe004400c5
:1036c0001100780038119000820f50000300310083
:1036d0003085fb008008780005003700080078007e
:1036e000a803070000057800e10f4500290032001b
:1036f000e10f47000a003a000a007800fd0d0700bc
:103700000005780090062000800f55000e00320062
:10371000e0062000800f55000d0032001900370030
:103720000a007800f30d07008e00470072815700f1
:10373000e2807800e1c07e008100fb00810f500034
:10374000040032000f0037000007eb0001003700d3
:103750001e0020008a747e000c06e8008d06e8003a
:10376000e38f5600d5ff3a000d05780009003700b9
:10377000381090000000e000020032007e0044009b
:103780001008e9000c06e9008b0f5600f8ff3d0019
:103790000005eb000a0078004f0778004f06be00d6
:1037a0004f05be004f04be006f00b10000000600d0
:1037b000f2874700889fbe008a9fbe008c9fbe0094
:1037c0008e1f780080047800a1b79f000304780062
:1037d0002205900042069000b205900098067800fd
:1037e00009007800c10007000d0c40000c06e9003c
:1037f0000a00e00001003a000c057800dab79f00eb
:103800000a0078008c0f500001003400dcb79f00e4
:103810000b07780011002000c1b79f008006eb0065
:103820000d057800bdb79f00fbb79f008d057800a0
:1038300089bf9f008d047800820037000fb9970080
:10384000fe004100110078008201780033119000e1
:10385000820f5000030031003086fb0080087800a2
:103860000a0037000fb897004603070000067800eb
:10387000e10f460005003a00ffb597006fb29700d0
:103880000400e00076003c00830037000a00e000fe
:103890000e003a00b0022000800f560003003200f4
:1038a000d0022000800f560008003a000d00e00012
:1038b00002003200898f56000c003a000c4f78004d
:1038c000180ce8001a002000590037003fb097009c
:1038d0000000e00012003a00e0022000800f5600d5
:1038e0000f003a000900e00008003200ffb5970021
:1038f0008fbc9700391090000000e00058003200a3
:10390000fe844400990ce900550037000c4f780004
:10391000180ce80011002000b1b79f0044003700e8
:103920000900e00021003a000b00e0000400320032
:103930000c0078006f0d07000087b200030037000d
:103940000c0078006b0d07005086b20000f0a70055
:103950000000ea000000e9004f00de000004e00083
:1039600054003200cfb497000c4f7800180ce800d8
:103970000005eb002e0037000c0078005d0d0700fd
:1039800081072000810f500008003a00fef89700e0
:1039900000c3b30080cf500004003a000c4f780001
:1039a000180ce8001b002000210037000b00e0008d
:1039b000050032000c0078000e0e07000000e00049
:1039c00019003a000400370000fd2f000c004000f1
:1039d000e90f500014003600ffb597008fbc970028
:1039e000391090000000e000020032007e804400a8
:1039f0001008e9008d0f550019003a00dfb197005b
:103a00000a0178008b0078000900780018ff070091
:103a10000000e000110034000a054000eab79f00f2
:103a2000180c40000e0037000c4f7800180ce8000e
:103a30008d06e8004fb197000201e800c2b79f0071
:103a40000e07e800edb79f005fb29700848f560025
:103a50007aff3500ffb5970001003700eab79f00f5
:103a6000efb09700018045000048eb00fe80570052
:103a70000b0078008a0307002fb29700009abe005f
:103a80000292be001c0020001fb09700808f5500de
:103a900001003a00ecff2f000c0078004f0778007f
:103aa0004f06be004f05be004f04be002f01b100ff
:103ab000000006000a00e800808f5600bbff3a00b5
:103ac000adff3700800078001000200002022000c7
:103ad000828f500004003200e9805000e48f5000d3
:103ae000010036000000eb0000000600889fbe00c9
:103af000000478008004eb000a003700f1ff0700a3
:103b00000000e00006003a00381090000000e000dd
:103b1000100032007e044400180ce9000d0037004c
:103b20008904e8007e01440092007800381090007b
:103b3000808f5000030031003180fb0001097800c4
:103b4000eeff3700080078008e020700e10f40000a
:103b5000eaff3a00090078004f04be0000000600aa
:103b6000889fbe008a1f78000004be0019007800fc
:103b70001000fb00d3ff07000005eb000000e00091
:103b80000900320008007800d8ff0700000578001f
:103b90001900e800800c78001000fb00c9ff070046
:103ba0000000e000faff3a000a0078004f057800b4
:103bb0004f04be00000006006f11b000889fbe00d9
:103bc0008a9fbe008c9fbe008e1f78000005780083
:103bd0000104780083057800040678000f0078005f
:103be000a011b100040009000018eb00e2b79e002c
:103bf00000082000f0b79e00880078000a007800d6
:103c0000d7ff0700800678001a003700fe00450045
:103c1000110078003a119000820f5000030031002b
:103c2000b084fb0080087800050037000a007800a7
:103c30005402070080047800e18f4400070032003e
:103c4000180078001000fb00808f54000300320041
:103c50003a109000e9ff2f000d0137009b0de8009e
:103c6000180ce800880078000a007800bcff070004
:103c70008086460018007800904078000104e0003b
:103c80000300320052c2b30082cf5000dfff3a007f
:103c90009b8d460051c2b30090cf10008f013a00b7
:103ca0000000e800000c78008000eb00d1b79e0017
:103cb00081067800a1c2b30090cf100002003a0044
:103cc000000ce8001d002000180078005c0c0700c4
:103cd000d0b79e006102b900612bb9000a007800dc
:103ce0000302070001003700000ce800180078000c
:103cf0009000fb000103b100e98f5000faff36008d
:103d0000080078000afc07000047780018007800d7
:103d10001000fb00770c070091062000810f500077
:103d20003300320015003c0031062000810f5000a6
:103d30009f0032000a003c00b1052000810f5000b6
:103d4000d800320011062000810f5000840032009c
:103d500051022000810f50005f013a00b700370088
:103d600041062000810f500019003200710620002a
:103d7000810f500058013c007900370001072000f6
:103d8000810f50005200320007003c00e106200085
:103d9000810f500060003200f1062000810f5000ba
:103da0004d013a003a00370051072000810f5000c2
:103db0002100320081072000810f50003c003200ba
:103dc00031072000810f500043013a008a0037007c
:103dd0008b01780062ee2f000f014100e1ed2f0012
:103de0008f8040000a007800460107000700370076
:103df0008b01780062ee2f000f014100e1ed2f00f2
:103e00008f8040000a0078003e010700800478009f
:103e10000900e00034013500180ce8008004eb00d4
:103e20000d00e00030013a008e80fb008c0178002c
:103e300012002000110037008b01780062ee2f0085
:103e40000f014100e1ed2f008f8040000a00780053
:103e50002c010700800478000900e00022013500f1
:103e6000180ce8008004eb000d00e0001e013a0091
:103e70008e80fb008c01780009017800e0ed2f00b6
:103e80000f004000dc0e07008004780016013700a8
:103e90008b01780062ee2f000f014100e1ed2f0051
:103ea0008f8040000a00780016010700e9ff370004
:103eb0008b01780062ee2f000f014100e1ed2f0031
:103ec0008f8040000a0078000e010700e1ff3700f4
:103ed0008b01780062ee2f000f014100e1ed2f0011
:103ee0008f8040000a0078000601070080047800f7
:103ef0000900e000fc003500180ce8008004eb002d
:103f00000d00e000f8003a008c017800090178000b
:103f1000010f2000d9ff3700180ce8001b007800c3
:103f2000cf80de006109b900f0af9e0081b79e002e
:103f300092b79e00a3b79e008004eb000d00e00046
:103f4000e9003a008e80fb008c01780009017800be
:103f5000e0ed2f000f004000a70e0700e200370041
:103f60008b01780062ee2f000f014100e1ed2f0080
:103f70008f8040000a0078000dfe07008004780062
:103f80000900e000d8003500180ce8008004eb00c0
:103f90000d00e000d4003a008e80fb000c01780098
:103fa000e0ed2f000f004000740e0700b6ff370051
:103fb00000c8b300804f5700c7003a005fb19600b9
:103fc0000200e00002003a0010002000d0b79e007e
:103fd000180ce8000002eb000d00e00003003a00be
:103fe0001c80e900000e7800100278008b01780038
:103ff0000001eb000c00370000c8b300804f5700f1
:10400000b5003a00180ce8000002eb000d00e000db
:1040100003003a001c80e900000e780010027800ce
:104020008b0178001200200061ee2f008f8040008d
:104030000a007800b400070093ff370000c8b300ff
:10404000804f5700a4003a00180ce8007e0145009c
:10405000920078003a109000808f500003003100e9
:104060003180fb0001097800020037000a00780067
:104070004401070051022000810f500002003a0065
:104080009b0de800970037003a1090008004eb0089
:104090000000e000940032007e0545001a0de900a2
:1040a0009100370000c8b300804f57008a003a00e3
:1040b0000007eb000d00e00003003a001c80e9005f
:1040c000000e7800100778001800e800000c780057
:1040d0008004eb00e1c5b30090cf100002003a006d
:1040e000000ce80019002000121020008900780060
:1040f00000ef2f000f004000aafc07000040eb007b
:1041000080f79d001800780090407800d2c2b3007c
:1041100082cf500005003a00000ce80010c0b30048
:1041200009405000e05f9e002e003700d2c5b3006a
:1041300082cf50002b003a00000ce80010c0b30002
:1041400009405000e0cf9e00260037000004e00048
:1041500029003200d3c2b300834f500018003a0048
:1041600018009000104078000004e00014003200b5
:10417000814f5000120032000201e8000800780070
:1041800002107800100078001000fb0001ef2f00f3
:104190008f80400000804000030037000000e800ee
:1041a00011c0b30009c8500003ef2f008f814100f8
:1041b000830150009200fb00818f5100f7ff350012
:1041c000180078009000fb00e2ed2f000f01410085
:1041d00081004100f380400012c0b30089485100c3
:1041e000000ce8001801780012407800d1c5b30037
:1041f000814f5000d5ff3a000e00e0001900320058
:104200008e0678000006eb0003003700895e780018
:104210000c06e8009b0de800fe0045001100780048
:104220003a119000820f500003003100b084fb006f
:1042300080087800030037000a007800d1000700ea
:1042400080047800e1ed2f008f804000098040005d
:10425000305090000004e000ecff3a0013003700fb
:104260009b0de800fe004500110078003a11900017
:10427000820f500003003100b084fb0080087800fa
:10428000030037000a007800be00070080047800b1
:10429000e2ed2f000f014100090041003050900075
:1042a0000004e000eeff3a000006eb003a10900038
:1042b0000000e000020032007e0545001a0de90012
:1042c0000c00e000040032000e00e00002003200aa
:1042d0000c074700004feb00180ce800e18f44008a
:1042e000010032008004eb00090078004f077800dd
:1042f0004f06be004f05be004f04be006f11b10057
:104300000000060000000500000005006f08b00076
:10431000889fbe008a1f78008e1f780000057800f5
:10432000820478004ef72f000f074700011f780026
:10433000000feb000004eb000d00370009027800cd
:1043400063f72f008f81410082f72f000f0141009a
:1043500041f72f008f8040000a00780016fe07000a
:10436000800178000300e0000400350003044400ed
:104370002f3897001004e000f0ff3a00e18f410071
:1043800003003a000800e00001003a00030478004e
:10439000080078004f0778004f0578004f04be00f2
:1043a0006f08b10000000600889fbe008a9fbe0013
:1043b0008c9fbe0080057800810678000206780098
:1043c000eb0c9000081020000c0444000801780059
:1043d0008000eb0009007800150007000000e000f5
:1043e0000100320009045000080578008c0f5400c9
:1043f000010036000c0578000a0178008900780079
:104400000d007800e0fb07007e8045000a8844002c
:104410000884440088159800e80d98000a00780088
:104420004f06be004f05be004f04be000000060050
:104430008180fb00010037000201e9008001780063
:104440000008a300060032000200e0002300320052
:104450003082fb00810f5200f7ff3a000300370063
:104460000000eb000200e0001e0032001380fb00a1
:10447000810f50001c00320014102000048ab90083
:1044800084027800010037000281e900030078000f
:10449000e10f51000a00360033826a00f6ef2f0068
:1044a000040343000482ea000402630006082800b3
:1044b00006026200f4ff3200010037000201e90049
:1044c000800178000200e000050032003082fb002d
:1044d000810f5200f9ff3a00030037000000050089
:1044e0000000eb000000060003007800000006005a
:1044f000889fbe008a9fbe00441098005510980007
:104500006610980077109800f00890002004900042
:1045100001045400cfc4de00614db90008189800b2
:10452000191898002a1898003b189800e00f5200bc
:10453000e08f5a00e00f5b00e08f5b000c00320060
:104540000014900001045400cfc4de00614db90096
:104550000440e10005c8e10006d0e10007d8e10011
:10456000030034006002b0000488400002003700fd
:1045700080109000311098004f05be004f04be001f
:10458000000006002800fa00889fbe008a1f7800fd
:1045900000047800f8089000280090000080500087
:1045a000081a9000981a9000281b9000b81b9000e1
:1045b000cf80de0004024000858248000683480068
:1045c0008783480048109000d81090006811900030
:1045d000f8119000e00f5000e08f5800e00f5900f4
:1045e000e08f5900050032000020e10001a8e10041
:1045f00002b0e10003b8e1000d003d0008007800c2
:10460000d4b79f00e5b79f00f6b79f0087bf9f0014
:10461000b3000700800478005fb29700efb2970004
:104620007fb397008fbb97000900e00014003d00a6
:10463000780890002801900000015100010320003b
:1046400088804000cf91de008418410085984900a1
:10465000869849008788490030149800f0ff2f00a1
:10466000f1ff2f000001be00401498005114980083
:1046700062149800731498008084eb005100370096
:1046800061004200e0804a0060014b00e0814b0085
:1046900090bf9f00a1bf9f00b2bf9f00c3bf9f00fc
:1046a00048129000d812900068139000f813900000
:1046b00094b79f00a5b79f00b6b79f00c7b79f00ec
:1046c000e00f5200e08f5a00e00f5b00e08f5b00cc
:1046d00029003200780d9000081190000a01510065
:1046e0006112b900612bb900d4af9f00e5af9f0004
:1046f000f6af9f0087b79f001fb09700afb097003d
:104700003fb19700cfb197001fba9700afba97009b
:104710003fbb9700cfbb9700040050008580580036
:10472000060159008781590090af9f00a1af9f00fb
:10473000b2af9f00c3af9f005faa9700efaa970098
:104740007fab97008fb397000020e10001a8e10044
:1047500002b0e10003b8e100070034009fb2970007
:104760001fbb9700868152006202200008014100b1
:1047700003094500020037008813900037149800a1
:1047800028019000f8089000810151000803b00052
:104790001fba9700afba97003fbb9700cfbb9700f7
:1047a0004f98de00049c4100051c4800061c480090
:1047b000070c48006800b100828f500001003e00e5
:1047c000f9f89f00090078004f0578004f04be00fb
:1047d0000080fa00000006003c00fa00889fbe003e
:1047e0008a9fbe000004be00020578000f0078001a
:1047f0004004b1001d0009000018eb0088a79f00cd
:10480000d8af9f008085eb00ebaf9f006022b8001f
:104810006033b800c0fb2f000f00400034ff0700da
:10482000120020008a007800c0fb2f000f0040001b
:10483000230807006fb29700ffb297000fbb9700e5
:104840009fbb9700dfad97000fa597000900e00020
:10485000090032000a855500cfd5de00040245006c
:1048600085824d0006834d0087834d000100320094
:1048700004044400880c78004f05be004f04be00bd
:104880000080fa00000006000001eb00d2ff0700e4
:10489000d00d370012002000cfff0700cd0d3700ec
:1048a00022002000ccff37000200fa00881f7800a9
:1048b00000047800e2bf9f00648157000800780080
:1048c00092fe0700980090000148a300010032000a
:1048d0000080eb004f0478000080fa000000060022
:1048e0000200fa00889fbe000004780008007800eb
:1048f000090907008084eb000000e00009003a008d
:104900009811900012002000e680570008007800ff
:1049100003000100e10f500002003a002ff8970059
:104920008084fb00090078004f04be000080fa007c
:104930000000060080007800100020000202200025
:10494000828f500004003200e9805000e48f500054
:10495000010036000000eb00000006000800fa002d
:10496000889fbe008a9fbe00000478008105780001
:10497000fe0044001100780038119000820f5000b2
:1049800003003100b084fb0080087800030037008a
:1049900008007800fbfe070080047800b0022000c9
:1049a000808f5400040032000005eb00d00220008c
:1049b000808f54001b003a00d982b20009f0a70092
:1049c0008904ea008904e9004f4dde00fe0044003e
:1049d0001100780038119000820f50000300310060
:1049e000b084fb00800878000300370008007800de
:1049f000e4fe07008004780000fd2f00090040005d
:104a0000e90f5000070036000b00e00005003200ff
:104a1000381090000000e000020032007e004400e8
:104a20001008e90000fd2f00090040008005eb00a0
:104a3000e90f500013003600381090000000e0002d
:104a4000740032007e044400180ce9007100370045
:104a50006a59b90082054000fe0044001100780048
:104a600038119000820f500003003100b084fb0029
:104a7000800878000300370008007800c1fe0700b6
:104a80008004780000fd2f0009004000e90f50006d
:104a900003003e00b1cc2000818f5500ecff3400b4
:104aa000615ab900612bb90084bf9f0095bf9f0078
:104ab000a6bf9f00b7bf9f0020003700a4002000c2
:104ac000050020006033b8000fb897009fb897002a
:104ad0002fb99700bfb99700a6110700cfcdde0010
:104ae0000082440081824d0002834d0083834d008b
:104af0000403b1000580b1000680b1000780b10059
:104b000084bf9f0095bf9f00a6bf9f00b7bf9f00b7
:104b1000fe0044001100780038119000820f500010
:104b200003003100b084fb008008780003003700e8
:104b30000800780093fe07008004780000fd2f0035
:104b400009004000e90f500018003e00d07a240010
:104b500011ae270042e12a00731420000fba97001b
:104b60009fba97002fbb9700bfbb97000020e100c2
:104b700001a8e10002b0e10003b8e100cfff34007a
:104b80000a0037007e01440012007800910f5000a7
:104b900003003100b084fb000009780003003700f7
:104ba0000800780077fe0700800478000903b10050
:104bb0006102200088804000e98f5400f1ff360038
:104bc0001100e000020032007e044400180ce900ed
:104bd0000a00e000160032006000b8006011b80062
:104be0000fba97009fba97002fbb9700bfbb9700e3
:104bf000040250008582580006035900878359003b
:104c000084bf9f0095bf9f00a6bf9f00b7bf9f00b6
:104c1000070037006000b8000200200003002800f1
:104c200080bf9f0091bf9f00a2bf9f00b3bf9f00a6
:104c30000fb897009fb897002fb99700bfb997009a
:104c40004f05be004f04be000080fa0000000600c1
:104c50000f04b000889fbe008a9fbe008c9fbe00dc
:104c60008e1f780000067800b1a79f00c29f9f00aa
:104c7000a3a79f00b49f9f007e014600920078008a
:104c80003c109000808f5000040031003180fb0008
:104c9000010978000007eb000e0037000c007800d7
:104ca00038fe0700fbff37007e01460092007800c7
:104cb0003c109000808f5000030031003180fb00d9
:104cc00001097800020037000c0078002dfe070073
:104cd0001e00200001032000810f5000f2ff32006f
:104ce0006022b8006033b80094af9f00a5af9f006a
:104cf000b6af9f00c7af9f008002eb0095a79f0053
:104d0000e1022000810f500025003a007e0146009c
:104d1000920078003c109000808f50000500310018
:104d20003180fb00010978006044b8006055b8008c
:104d3000120037000c00780012fe0700faff37005f
:104d40007e014600920078003c109000808f500059
:104d5000030031003180fb000109780002003700b8
:104d60000c00780007fe070061045400e0845c003a
:104d700060055d00e0855d001e002000010320004d
:104d8000810f5000eeff320098af9f00a9af9f0047
:104d9000baaf9f00cbaf9f001500200095a79f00e2
:104da0006022b8006033b800d4af9f00e5af9f0029
:104db000f6af9f0087b79f008002eb00a59f9f0082
:104dc0006022b8000600200007ff2300d49f9f0048
:104dd000e59f9f00f69f9f0087a79f006044b80053
:104de0006055b8006033b800f6a79f0087af9f00fa
:104df00085003700e1022000810f50000e003a00cc
:104e00009fa397000700e0008c003a005fa897007e
:104e1000efa897007fa997008fb1970090af9f00f0
:104e2000a1af9f00b2af9f00c3af9f001100200051
:104e300091a79f006a00370091032000810f500066
:104e4000030034000050a0009dfa2f008086460029
:104e500070002000010020006011b8005faa9700d8
:104e6000efaa97007fab97008fb397000020e10077
:104e700001a8e10002b0e10003b8e1000c003c0031
:104e80007fa397008fab97004438dd00cc30de0065
:104e9000810070004430dd004feade0000814600f2
:104ea00081014a00f2a79f0083af9f003f003700b7
:104eb000d0002000010020006011b8005faa970018
:104ec000efaa97007fab97008fb397000020e10017
:104ed00001a8e10002b0e10003b8e1001d003c00c0
:104ee0006022b8000600200007fb23005f989700af
:104ef000ef9897007f9997008fa19700790d070091
:104f00000002be000203be00d49f9f00e59f9f00e9
:104f1000f69f9f0087a79f006168b900280c0700d3
:104f20005f9a9700ef9a97007f9b97008fa3970057
:104f30006c0d07000002be000203be000800be00a8
:104f40000a01be006d0c07000004be000205be0091
:104f5000160037000d00e00014003200af9a9700f1
:104f60000500e00011003a006022b80006002000b1
:104f700007fe23005f989700ef9897007f999700ae
:104f80008fa19700570d07000002be000203be006c
:104f90000800be000a01be00580c07000004be0055
:104fa0000205be0016002000a69f9f005fa8970084
:104fb000efa897007fa997008fb19700610040008c
:104fc000e080480060014900e0814900d0af9f00c7
:104fd000e1af9f00f2af9f0083b79f001e0020004b
:104fe0007e014600920078003c109000808f5000b7
:104ff000030031003180fb00010978000200370016
:105000000c0078005ffd07000dfd2f008086460034
:10501000e98f560077ff3600800078000150a0002d
:105020001106b100e58f500072ff3600e10220004a
:10503000810f500072ff320001003700e0022000b3
:105040000e00e0001b003a003c1090000000e00061
:1050500002003200fe0046009108e900bf98970068
:105060000100e0000c0032000000e000020032000d
:10507000fe0046009108e9001fa197000200e00031
:10508000090032000000e000070032007e06460002
:105090001c0ee900040037006022b8006033b8003d
:1050a0000c00780012fd0700afa197006118b9004d
:1050b000500037001fa297000400e00016003a00dd
:1050c0005faa9700efaa97007fab97008fb3970076
:1050d00094af9f00a5af9f00b6af9f00c7af9f00e2
:1050e000110037007fa197008fa997004418dd00b9
:1050f000cc10de00810070004410dd00f0a79f009e
:1051000081af9f0061024200e0824a0060034b00d1
:10511000e0834b00050037005faa9700efaa9700d5
:105120007fab97008fb39700800678007000200057
:10513000010020006011b8000020e10001a8e1009a
:1051400002b0e10003b8e100e6ff34000d00780092
:105150000050a00001072000810f500015003a0008
:10516000bf9897000c007800fcfd07006022b80093
:1051700006002000070028000400e1000588e10087
:105180000690e1000798e10013003a00bf999700ec
:105190000300e00007003a006022b8006033b80066
:1051a0000c007800d2fc07006000b8006011b80065
:1051b0003b0137003c1290006000b8006011b8005d
:1051c0000400e000040032007e0646001c0ee900e8
:1051d0006000b8006011b8007fa297008faa970006
:1051e000e00f5200e08f5a0007003a00afa297008c
:1051f0006128b900e3ed07006011b800c8ef0700af
:10520000240b0700260137001faa9700afaa9700ba
:105210003fab9700cfab970068025200e0825a0084
:1052200060035b00e0835b002c0020000402d000e0
:105230008582d2000683d2008783d2000c06e90063
:10524000faff3a0004024000858248000603490044
:1052500087834900d4af9f00e5af9f00f6af9f0062
:1052600087b79f00cf9a97000500ea00cf80de0045
:105270006109b9005faa9700efaa97007fab97007a
:105280008fb397000020e10001a8e10002b0e10027
:1052900003b8e1000f003400200220009054880081
:1052a000afa297006128b900450b0700f4ff2f005b
:1052b000f5ff2f00f6ff2f00f7fe2700890c0700ef
:1052c000f4ff2f00f5ff2f00f6ff2f00f7fe270059
:1052d0001a0037004f9b970067f92f000700430023
:1052e000cf80de006109b9005faa9700efaa97009e
:1052f0007fab97008fb397000020e10001a8e10089
:1053000002b0e10003b8e10039003d0020022000b6
:1053100090548800afa297006128b900280b0700bd
:105320006022b80006002000070120006d0c070075
:105330006022b8000600200007012000690c070069
:10534000d70037006022b8000600200007fe2300c7
:105350000800be000a01be00b50a07000c064600a0
:105360008d864e000000e0000d003500610646000d
:10537000e0864e006022b8000600200007ff2300f0
:105380000800be000a01be00560b07000002be0066
:105390000203be000800be000a01be000400370080
:1053a0000802be000a03be000800be000a01be00db
:1053b000520b07000004be000205be005fa8970064
:1053c000efa897007fa997008fb197006100500068
:1053d000e080580060015900e0815900d0af9f0083
:1053e000e1af9f00f2af9f0083b79f00020037003c
:1053f0007fa697008fae9700e00f5600e08f5e000b
:10540000d0ff3d00fca79f008daf9f003fa29700fb
:10541000cfa2de00612bb90094af9f00a5af9f0023
:10542000b6af9f00c7af9f00000220000100200020
:105430006011b800cf9a97004faede000502500011
:105440008c8258000c0359008c835900d49f9f0014
:10545000e59f9f00f69f9f0087a79f005fa897008a
:10546000efa897007fa997008fb197000000420036
:1054700081804a0002014b0083814b00d0b79f001e
:10548000e1b79f00f2b79f0083bf9f001faa97005c
:10549000afaa97003fab9700cfab97000020e10089
:1054a00001a8e10002b0e10003b8e1000600340009
:1054b000dfaa97004f9b9700068052000002b000c1
:1054c000b0a79f000b0033006000b8006011b80067
:1054d00090af9f00a1af9f00b2af9f00c3af9f00ee
:1054e00040032000bfa09700808f500038003c0090
:1054f000020037000001eb00b2a79f004205200028
:10550000bfa19700030151000000200001f8230013
:105510009b1107000006be002fa297006120b90072
:10552000a70a07000002be000203be000c00be0076
:1055300094b79f00a5b79f00b2b79f00c7b79f0061
:10554000540a07001fb29700afb297003fb397000d
:10555000cfb39700520f07000002be000203be0047
:1055600094af9f00a5af9f00b6af9f00c7af9f004d
:10557000bfa29700ff8f520015003c006022b800c8
:105580006033b8000800be000a01be003c0a0700f4
:105590000000e0000e0032006000b8007fa397001a
:1055a00061006300e00f5000e08f580008003a00ef
:1055b0007fa697008fae970061064600e0864e00fa
:1055c000fca79f008daf9f006044b8006055b800f5
:1055d000afa697006168b900790a07000002be0013
:1055e0000203be00b4a79f00c5a79f00d6a79f00d7
:1055f000e7a79f000802be000a03be00b90b070020
:105600000004be000205be007fa097008fa897008f
:105610006e0a07000002be000203be003fa0970012
:10562000cfa097005fa19700efa19700ad0b0700f7
:105630000002be000203be001fa89700afa897009b
:105640003fa99700cfa99700ac0a07000802be0047
:105650000a03be00a90a07001faa9700afaa970075
:105660003fab9700cfab97009e0a07000004be0037
:105670000205be006022b8006033b800000a0700cf
:105680000000e00002003a00200220009054880050
:105690005faa97000800be000a01be006211070061
:1056a0004f0778004f06be004f05be004f04be00f6
:1056b0000f04b10000000600cf23b000889fbe0099
:1056c0008a9fbe008c9fbe008e1f78000004780069
:1056d00001007800b2a79f00e39f9f0094af9f0056
:1056e000850578008006eb000b0037007e01440042
:1056f0009200780038109000808f50000300310035
:105700003180fb00010978000200370008007800b2
:105710009cfb07001d00200001032000810f5000aa
:10572000f2ff32000006eb006022b8006033b800e0
:1057300094b79f00a5b79f00b6b79f00c7b79f005b
:10574000e1022000810f50002c003a007e0144004d
:105750009200780038109000808f500009003100ce
